:020000043200C8
:1000000000000134150A0012B9090012C9090012D2
:100010009B090012C9090012C90900120000000062
:10002000000000000000000000000000C9090012EC
:1000300000000000000000009B0900129B09001254
:10004000EB090012EB090012EB090012EB09001298
:10005000EB090012EB090012EB090012EB09001288
:10006000EB090012EB090012000000000000000084
:100070000000000000000000000000000000000080
:100080000000000000000000000000000000000070
:100090000000000000000000000000000000000060
:1000A0000000000000000000000000000000000050
:1000B0000000000000000000000000000000000040
:1000C0000000000000000000000000000000000030
:1000D0000000000000000000000000000000000020
:1000E0000000000000000000000000000000000010
:1000F0000000000000000000000000000000000000
:1001000000000000000000000000000000000000EF
:1001100000000000000000000000000000000000DF
:1001200000000000000000000000000000000000CF
:1001300000000000000000000000000000000000BF
:1001400000000000000000000000000000000000AF
:10015000000000000000000000000000000000009F
:10016000000000000000000000000000000000008F
:10017000000000000000000000000000000000007F
:10018000000000000000000000000000000000006F
:10019000000000000000000000000000000000005F
:1001A000000000000000000000000000000000004F
:1001B000000000000000000000000000000000003F
:1001C000000000000000000000000000000000002F
:1001D000000000000000000000000000000000001F
:1001E000000000000000000000000000000000000F
:1001F00000000000000000000000000000000000FF
:1002000000000000000000000000000000000000EE
:1002100000000000000000000000000000000000DE
:1002200000000000000000000000000000000000CE
:1002300000000000000000000000000000000000BE
:1002400000000000000000000000000000000000AE
:10025000000000000000000000000000000000009E
:10026000000000000000000000000000000000008E
:100270000348044B834202D0034B03B11847704735
:10028000080500340805003400000000064B07494B
:10029000C91A891048BF0131491003D0044B0BB172
:1002A00001481847704700BF0805003408050034AE
:1002B0000000000010B5064C237843B9FFF7D8FFC3
:1002C000044B13B10448AFF300800123237010BD29
:1002D0005C050034000000005C68001208B5054BA6
:1002E0001BB105490548AFF30080BDE80840FFF7A2
:1002F000CDBF00BF00000000600500345C68001244
:10030000A3F5803A704700BF174B002B08BF134B73
:100310009D46FFF7F5FF00218B460F461348144A10
:10032000121A05F0A1FF0E4B002B00D098470D4B81
:10033000002B00D098470020002104000D000D483C
:10034000002802D00C48AFF3008005F095FF200094
:10035000290000F061FD05F075FF00BF00000800F6
:1003600000000000070A0012000001345C050034A0
:100370001C070034000000000000000080B500AF42
:1003800000F004F800F010F800BF80BD80B500AFA9
:1003900000F021FA00F012F800F058F800F020F90F
:1003A00000F088F800BF80BD80B500AF00F043F8D2
:1003B00000F07AF800F00EF900BF80BD80B500AF04
:1003C000002200214FF4806003F08EFB0023002206
:1003D00000214FF4806003F045F9002200214FF422
:1003E000806003F0BDFA012200214FF4806003F029
:1003F0007BFB0723012200214FF4806003F032F9D8
:10040000012200214FF4806003F0AAFA00220021AB
:100410004FF4A06003F068FB0023002200214FF49A
:10042000A06003F01FF9002200214FF4A06003F048
:1004300097FA00BF80BD80B400AF00BFBD4680BC4E
:10044000704780B483B000AF7860FEE780B582B0BB
:1004500000AF00237B60134801F090F978607B685F
:10046000002B02D07868FFF7ECFF0022002140F259
:10047000014003F0BBF90122002140F2024003F0E9
:10048000B5F9002200214FF4A06003F0E1FB002247
:10049000002140F2045003F0DBFB00BF0837BD46EB
:1004A00080BD00BFDC62001280B400AF00BFBD465B
:1004B00080BC704780B500AF2D4A02212D4800F066
:1004C00093FE2D4A03212B4800F08EFE2B4A00217B
:1004D0002B4800F089FE2B4A0121294800F084FEB8
:1004E000294A0221264800F07FFE284A0321244899
:1004F00000F07AFE264A0021264800F075FE264AC2
:100500000121244800F070FE244A0021244800F014
:100510006BFE244A0221224800F066FE224A032193
:100520001F4800F061FE214A0021214800F05CFED6
:10053000204A01211E4800F057FE1F4A02211C4894
:1005400000F052FE1D4A00211D4800F04DFE1D4ADC
:1005500001211B4800F048FE1B4A0221184800F008
:1005600043FE1A4A00211A4800F03EFE00BF80BD3B
:100570006C64001280004152A4640012DC6400121A
:1005800000014152146500124C650012846500128E
:10059000BC65001200024152F46500122C66001284
:1005A00000034152646600129C660012D466001279
:1005B000800341520C670012446700127C670012EE
:1005C00000044152B4670012EC6700122468001264
:1005D0008004415280B400AF00BFBD4680BC70476C
:1005E00080B500AF00230022064940F23D2005F00F
:1005F000BBFB00230022044940F2452005F0B4FB78
:1006000000BF80BD1A0200402702004080B483B0C2
:1006100000AF7860FEE780B500AF012003F02CFB4F
:1006200000BF80BD80B500AF012004F0BDFC0B49C8
:10063000012004F0D3FC0346002B02D00320FFF777
:10064000E5FF42F21071012004F0E4FC0346002BA8
:1006500002D00320FFF7DAFF00BF80BDCC020034D8
:1006600080B500AF0121002003F03CFC00210020F8
:1006700003F07EFC00BF80BD80B500AF00210120EB
:1006800003F030FC0121012003F072FC012003F093
:10069000F7FB00BF80BD80B500AF0121022003F051
:1006A00021FC0121022003F063FC022003F0E8FB9F
:1006B00000BF80BD80B500AF0121032003F012FC14
:1006C0000121032003F054FC032003F0D9FB00BFF9
:1006D00080BD80B500AF0021042003F003FC0121A0
:1006E000042003F045FC042003F0CAFB00BF80BDDA
:1006F00080B500AF0021052003F0F4FB01210520A7
:1007000003F036FC052003F0BBFB00BF80BD80B5C5
:1007100000AF03F07FFD00BF80BD80B500AF03F0E8
:10072000D7FC012003F00EFD00BF80BD80B500AFF7
:10073000002003F0BDFA00BF80BD80B500AF0621E8
:10074000002003F07BFD00BF80BD80B500AF062117
:10075000012003F073FD00BF80BD80B500AF06210E
:10076000022003F06BFD00BF80BD80B500AF062105
:10077000032003F063FD00BF80BD80B500AF0621FC
:10078000042003F05BFD00BF80BD80B500AF0621F3
:10079000052003F053FD00BF80BD80B500AF0621EA
:1007A000062003F04BFD00BF80BD80B500AF04F014
:1007B000F7FD04F0E5FC0346002B05D104F0D2FC64
:1007C00003F09AFCFFF7A9FF05F080FA012004F07E
:1007D00003FE00BF80BD80B500AFB421002004F04F
:1007E00053FD05F02FFBFFF7E0FFFFF79FFFFFF73B
:1007F0008EFF022004F0D8FBFFF7A7FFFFF7ADFF45
:10080000FFF7B3FFFFF7B9FFFFF7BFFFFFF7C5FF24
:10081000FFF708FFFFF730FFFFF73DFFFFF74AFF45
:10082000FFF757FFFFF764FFFFF7F5FEFFF775FFD0
:10083000FFF783FFFFF714FFB421002004F024FD2D
:1008400000F002FA00BF80BD80B582B000AF002387
:100850007B60FFF793FD7B68002B02D100F012F85C
:1008600078607B68002B02D100F018F878607B6814
:1008700018460837BD4680BD80B400AF00BFBD46F6
:1008800080BC704780B500AF0121034804F032FD01
:100890000023184680BD00BFD002003480B584B06C
:1008A00000AF00237B603A1D07F10803114618468C
:1008B00000F052F87B68002B03D0BB681B68002B4C
:1008C00001D100231AE00023FB6012E0BA68FB6844
:1008D0009B0013441B68184604F056FF034683F040
:1008E0000103DBB2002B01D0064B07E0FB680133AC
:1008F000FB607B68FA689A42E8D3002318461037F9
:10090000BD4680BD0000020680B584B000AF7860AF
:100910000B46FB700E4BFB60FB78082B0BD0082BB3
:1009200010DC022B02DC002B02DC0BE0042B09D1D3
:100930000023FB6007E00121064804F0DBFC0023F4
:10094000FB6000E000BFFB6818461037BD4680BD65
:10095000FF004200D002003480B483B000AF786062
:1009600039603B6800221A607B68054A1A603B6860
:1009700002221A6000BF0C37BD4680BC704700BF22
:100980001003003480B582B000AF7860786804F05E
:100990002DFC00BF0837BD4680BD80B400AFFEE728
:1009A00080B400AF00BFBD4680BC704780B400AFCC
:1009B00000BFBD4680BC704780B400AF0ABEFEE7F2
:1009C00000BFBD4680BC704780B400AFEFF3148019
:1009D00010F0020F0CBFEFF30880EFF30980FFF770
:1009E000D1BF00BFBD4680BC704780B400AF01BE20
:1009F000FEE700BFBD4680BC704780B400AF00BFBB
:100A0000BD4680BC704780B500AFFFF7F6FF00BF62
:100A100080BD000080B586B000AF374B1B68364AFA
:100A200023F000431360344B1B68334A43F0004308
:100A30001360FFF7B5FFFFF7B9FF00237B610AE002
:100A40002E4A7B6952F823202D497B6941F82320E7
:100A50007B6901337B617B699B2BF1D9294B284A48
:100A60009A60BFF35F8F00BF274B3B603B6883F307
:100A70000A8800BF00F0D5F8244B3B6119E0002341
:100A8000FB600EE03B691A68FB689B001A443B69F7
:100A90005968FB689B000B4412681A60FB680133BD
:100AA000FB603B699B68FA689A42EBD33B690C3365
:100AB0003B613B69164A9342E1D3164BBB6014E09D
:100AC00000237B6009E0BB681A687B689B001344C5
:100AD00000221A607B6801337B60BB685B687A68C0
:100AE0009A42F0D3BB680833BB60BB680A4A9342A2
:100AF000E6D3FFF709FC00BF0030105200000012DF
:100B00000000003400ED00E000F0003468680012DE
:100B100080680012806800128868001280B500AFFB
:100B20000021022003F0DEF90021022003F020FA68
:100B3000022003F0A5F90021032003F0D3F90021DE
:100B4000032003F015FA032003F09AF90021042092
:100B500003F0C8F90021042003F00AFA042003F08E
:100B60008FF900BF80BD80B500AF0021012003F0E8
:100B70001FF903460F2B0AD000220121012003F0A8
:100B8000B7F84FF0FF320021012003F0B1F8002147
:100B9000022003F00DF90346032B0AD000220121A5
:100BA000022003F0A5F84FF0FF320021022003F0ED
:100BB0009FF80021032003F0FBF803463F2B0AD0E7
:100BC00000220121032003F093F84FF0FF320021AF
:100BD000032003F08DF80021042003F0E9F8034618
:100BE000032B0AD000220121042003F081F84FF0EA
:100BF000FF320021042003F07BF80021052003F0E0
:100C0000D7F80346012B0AD000220121052003F06A
:100C10006FF84FF0FF320021052003F069F800BFA4
:100C200080BD80B500AFFFF779FFFFF79CFF00F0B4
:100C300004F800F009F800BF80BD80B400AF00BF29
:100C400000BFBD4680BC704780B582B000AF0023B6
:100C50007B60786803F0D4F938601A4A3B68136007
:100C6000184B1B68184A136001237B60786803F0F7
:100C7000C7F93860154A3B681360124B1B68144A69
:100C80001360134B1B6803F5742303F23F23114ACF
:100C9000A2FB03239B0CDAB20F4B1A700C4B1B68A0
:100CA00003F2E7330D4AA2FB03239B090C4A1360AE
:100CB000002003F0A5F903460A4A136000BF083775
:100CC000BD4680BD180300341C03003420030034EB
:100CD0002803003483DE1B4330030034D34D6210FD
:100CE0002C0300342403003480B483B000AF786058
:100CF00039603B68072B00D901BE01223B689A404E
:100D00007B689A6000BF0C37BD4680BC704780B4DA
:100D100083B000AF786039603B68072B00D901BE13
:100D200001223B689A407B685A6000BF0C37BD4681
:100D300080BC704780B582B000AF00237B6020E0AC
:100D400000212748FFF7D0FF7B689BB21A4692002C
:100D500013449B009BB2184604F0F0F90021204890
:100D6000FFF7D5FF7B68C3F164039BB21A4692007C
:100D700013449B009BB2184604F0E0F97B680133F2
:100D80007B607B68632BDBDD64233B6020E000211C
:100D90001348FFF7A9FF3B689BB21A469200134421
:100DA0009B009BB2184604F0C9F900210C48FFF7DC
:100DB000AEFF3B68C3F164039BB21A469200134432
:100DC0009B009BB2184604F0B9F93B68013B3B60BD
:100DD0003B68002BDBDC00BF00BF0837BD4680BD91
:100DE0008004415280B500AF00210848FFF77CFF26
:100DF00000210748FFF78BFF00210648FFF774FF2B
:100E000001210448FFF783FF00BF80BD80044152E9
:100E1000000441520002415280B582B000AFFFF79A
:100E200013FD78607B68002B00D001BE62B600BF66
:100E3000FFF7D8FFFFF77EFFFCE70000000000008F
:100E40000230800803D001300238FCD100BF00BF5F
:100E50007047EFF3108072B6704780F310887047C8
:100E600080B489B000AFF860B9607A60BB68072BC6
:100E700000D901BE7B6823F01F03002B00D001BE08
:100E8000FB6803F12D4303F53F03DB09FB61FA69BE
:100E90000D4B13441B01BB61BB691A680121BB6880
:100EA00001FA03F3DB4313407B617B6803F001022B
:100EB000BB689A407B691A43BB691A6000BF24373C
:100EC000BD4680BC704700BF0001240580B489B0D6
:100ED00000AFF860B9601346FB71BB68072B00D9FF
:100EE00001BEFB7923F01F03002B00D001BEFB687D
:100EF00003F12D4303F53F03DB09FB61FB6903F1BC
:100F0000A46303F580231B01BB61BB68032B14D8CA
:100F1000BB691A68BB68DB001F2101FA03F3DB43DE
:100F200013407B61FB7903F01F02BB68DB009A4032
:100F30007B691A43BB691A6016E0BB68043BBB605F
:100F4000BB695A68BB68DB001F2101FA03F3DB436E
:100F500013407B61FB7903F01F02BB68DB009A4002
:100F60007B691A43BB695A6000BF2437BD4680BC09
:100F7000704780B485B000AFF860B9607A60BB6834
:100F8000072B00D901BE7B68012B00D901BE7B680D
:100F9000002B05D10122BB689A40FB685A6004E02F
:100FA0000122BB689A40FB689A6000BF1437BD46B7
:100FB00080BC704780B489B000AFF860B9607A60D7
:100FC000BB68072B00D901BE7B6823F00F03002B01
:100FD00005D17B68012B02D07B68092B00D101BEB3
:100FE000BB689B00FB61FB685A6C0F21FB6901FA2F
:100FF00003F3DB431340BB617B6803F00F02FB6923
:1010000002FA03F3BA6913437B61FB687A695A6495
:1010100000BF2437BD4680BC704780B487B000AFA6
:10102000F860B9607A60BB68072B00D901BE7B68A5
:10103000012B00D901BEFB689A6C0121BB6801FA43
:1010400003F3DB4313407B617B6803F00102BB6861
:101050009A407B691A43FB689A6400BF1C37BD46FF
:1010600080BC704780B487B000AFF860B9607A6028
:10107000BB68072B00D901BE7B68012B00D901BEDC
:10108000BB689B007B61FB685A6E07217B6901FA94
:1010900003F3DB4313403B617B6803F007027B698A
:1010A0009A403B691A43FB685A6600BF1C37BD462D
:1010B00080BC704780B487B000AFF860B9607A60D8
:1010C000BB68072B00D901BE7B6823F01F03002BF0
:1010D00000D001BEBB68032B14D8FB689A6EBB68B6
:1010E000DB001F2101FA03F3DB4313407B617B68C4
:1010F00003F01F02BB68DB009A407B691A43FB6860
:101100009A6616E0BB68043BBB60FB68DA6EBB689E
:10111000DB001F2101FA03F3DB4313407B617B6893
:1011200003F01F02BB68DB009A407B691A43FB682F
:10113000DA6600BF1C37BD4680BC704780B487B0FC
:1011400000AFF860B9607A60BB68082B00D901BEB7
:101150007B68012B00D901BEFB689A690121BB683D
:1011600001FA03F3DB4313407B617B6803F0010268
:10117000BB689A407B691A43FB689A6100BF1C37C1
:10118000BD4680BC704780B487B000AFF860B960DE
:101190007A60BB68082B00D901BE7B68002B09D0A0
:1011A0007B68012B06D07B68022B03D07B68032B66
:1011B00000D001BEBB685B007B61FB681A6C032139
:1011C0007B6901FA03F3DB4313403B617B6803F067
:1011D00003027B699A403B691A43FB681A6400BFAB
:1011E0001C37BD4680BC704780B588B000AFF86042
:1011F000B9607A60884BFB61FB68002B00F00681C8
:101200007B68002B00F00281BB68072B00D901BE70
:101210007B681B68012B00D901BE7B685B6823F0EB
:101220000F03002B07D17B685B68012B03D07B6821
:101230005B68092B00D101BE7B681B7A23F01F037A
:10124000002B00D001BE7B68DB68002B0CD07B68D4
:10125000DB68012B08D07B68DB68022B04D07B683D
:10126000DB68032B00D001BE7B681B69012B00D912
:1012700001BE7B685B69012B00D901BE7B681B6ADC
:10128000012B00D901BE7B685B6A012B00D901BE2E
:101290007B689B6A012B00D901BE7B68DB6A002B4F
:1012A0000CD07B68DB6A012B08D07B68DB6A022BE1
:1012B00004D07B68DB6A032B00D001BE7B681B6B0C
:1012C000002B1CD07B681B6B012B18D07B681B6B21
:1012D000022B14D07B681B6B032B10D07B681B6B1D
:1012E000042B0CD07B681B6B052B08D07B681B6B19
:1012F000062B04D07B681B6B072B00D001BE7B68DC
:10130000DB6923F01F03002B00D001BE7B689B69C3
:1013100023F00703002B00D001BE0022B968F86853
:10132000FFF79EFD7B689B691A46B968F868FFF76E
:1013300099FE7B68DB691A46B968F868FFF7BAFE60
:101340007B681B7A1A46B968F868FFF7BFFD7B68AF
:101350005B681A46B968F868FFF72CFE7B68DB68A3
:101360001A46B968F868FFF70EFF7B681B691A46D2
:10137000B968F868FFF7E2FE7B685B691A46B968EE
:10138000F868FFF74AFEFB681B6D23F0FF03BB61A3
:101390007B681B6A03F001027B685B6A5B0003F0F9
:1013A00002031A437B689B6A9B0003F004031A4301
:1013B0007B68DB6ADB0003F018031A437B681B6B56
:1013C0005B01DBB21A43BB689B0003F47E7302FA35
:1013D00003F3BA6913437B61FB687A691A657B681A
:1013E0001B681A46B968F868FFF7C3FD7B685B6B3A
:1013F00023F00103002B00D001BE7B685B6B1A4613
:10140000B968F868FFF72CFD0023FB61FB691846FB
:101410002037BD4680BD00BF01005A0080B582B0B4
:1014200000AF03463960FB71FB790022396818462A
:1014300000F0B6FA034618460837BD4680BD0000E6
:1014400080B400AF074B03F550231B6A03F44073CD
:10145000002B14BF01230023DBB21846BD4680BC1D
:10146000704700BF0000B05280B400AF074B03F5D7
:1014700050231B6903F00103002B14BF0123002339
:10148000DBB21846BD4680BC704700BF0000B052BA
:1014900080B582B000AF00237B60FFF7D1FF034629
:1014A000002B01D0034B7B607B6818460837BD4694
:1014B00080BD00BF0101DE0180B588B000AF0346EA
:1014C0003960FB71FFF7E4FFF8613B681B78002B84
:1014D00010D03B681B78012B0CD03B681B78022B8B
:1014E00008D03B681B78032B04D03B681B78042B87
:1014F00000D001BE3B685B78002B1CD03B685B785A
:10150000012B18D03B685B78022B14D03B685B78CA
:10151000032B10D03B685B78042B0CD03B685B78C6
:10152000052B08D03B685B78062B04D03B685B78C2
:10153000072B00D001BE3B68002B3BD0FB79072B6B
:1015400038D8FB799B00BB61FB799B00072202FA2C
:1015500003F37B61FB799B003B61FB799B000F22CE
:1015600002FA03F3FB60174B03F560231A687B69EB
:10157000DB431A403B681B781946BB6999407B697D
:101580000B401049134301F5602213600D4B03F526
:1015900060235A68FB68DB431A403B685B78194656
:1015A0003B699940FB680B400649134301F56022F3
:1015B000536002E04FF0EF73FB61FB691846203780
:1015C000BD4680BD0000B05280B586B000AF034676
:1015D0003960FB71FFF75CFF7861FB79072B32D82C
:1015E0003B68002B2FD03B685B7803F0E003002BB7
:1015F00029D1FB793B6101223B6902FA03F3FB60CD
:10160000154B03F570231A6DFB68DB431A403B68EA
:101610001B7819463B699940FB680B400E49134300
:1016200001F5702213653B685B7818463B689B7830
:101630001B029AB20849FB79024303F57033183351
:1016400041F8232002E04FF0EF737B617B6918467D
:101650001837BD4680BD00BF0000B05280B584B0D1
:1016600000AF03460A46FB711346BB71FFF710FF3C
:10167000F860BB79002B21D0BB79012B1ED0BB7940
:10168000022B1BD0BB79032B18D0BB79042B15D0B0
:10169000BB79052B12D0BB79062B0FD0BB79072B5A
:1016A0000CD0BB79082B09D0BB79092B06D0BB79AC
:1016B0000A2B03D0BB790B2B00D001BEFB79072B83
:1016C0000AD8BA790849FB7902F00F0203F57033A2
:1016D000203341F8232002E04FF0EF73FB60FB68FA
:1016E00018461037BD4680BD0000B05280B487B0A8
:1016F00000AF1F4B7B611F4BBB60BB681B68072B98
:101700002FD100233B610FE0BA683B69DB00134433
:101710005B687B60BA683B69DB0013449A687B684E
:101720001A603B6901333B613B69062BECD900230E
:10173000FB7311E04FF00D52FB7B0F48F97B03F573
:10174000CA739B0013445A6801F5E033083340F82C
:101750002320FB7B0133FB73FB7B0F2BEAD9002398
:101760007B617B6918461C37BD4680BC704700BF53
:101770001000DE019C0640230000B05280B584B00A
:1017800000AF7860784B03F550231A464FF00043C2
:1017900013607B68002B03D14FF0EF73FB60DEE03A
:1017A000FFF74EFE0346002B04D1FFF75DFE034614
:1017B000002B02D06D4BFB60D1E0FFF797FF034693
:1017C000002B02D06A4BFB60C9E07B685B89B3F5F4
:1017D000807F03D87B685B89002B00D101BE7B68CA
:1017E0001B7A03F0E003002B00D001BE5E4B03F533
:1017F00060231A465F4BC2F8003E7B685B89013B61
:10180000594ADBB202F5602213627B681B7A564AA2
:1018100003F01F0302F5502253627B681A787B683D
:101820005B6819461046FFF7F9FDF8600023FB726C
:1018300043E0FA7A796813469B0013440B440C3357
:101840001B781846FA7A796813469B0013440B44B8
:101850000D331B781B0203F4807340EA0301FA7A0C
:10186000786813469B00134403440E331B785B02D5
:1018700003F400731943FA7A786813469B00134403
:1018800003440F331B789B0203F480631943FA7AF5
:10189000786813469B001344034410331B78DB0223
:1018A00003F400623048FB7A0A4303F560330C33DB
:1018B00040F82320FB7A0133FB72FB7A032BB8D963
:1018C0007B681B6A002B08D07B681B6A184600F0F7
:1018D00081FE0246FB681343FB607B685B6A002B5A
:1018E00008D07B685B6A184601F058FC0246FB682A
:1018F0001343FB600023BB722EE0BB7A14335B0002
:101900007A681A44BB7A11461846FFF7D5FD02469D
:10191000FB681343FB60BB7A7A68134493F8382062
:10192000BB7A11461846FFF799FE0246FB6813433F
:10193000FB60BA7A13465B00134440337A681A445A
:10194000BB7A11461846FFF73FFE0246FB68134379
:10195000FB60BB7A0133BB72BB7A072BCDD9FB6826
:1019600018461037BD4680BD0000B0520101DE01AF
:101970001000DE010400118080B400AF074B03F5B6
:1019800050231B6A03F44073002B14BF0123002370
:10199000DBB21846BD4680BC704700BF0000B052A5
:1019A00080B592B000AF03463960FB711346BB713E
:1019B0005B4B7B643B68002B00F09284FB79102B1F
:1019C00000F28E84BB790F2B00F28A84FA79BB79FE
:1019D0001344102B00F28484FFF7CEFF0346002B44
:1019E00003D0504B7B6400F07BBCBB7987F843305D
:1019F000002387F8423000F06DBC0023FB63002316
:101A0000BB6300237B63002387F8333055E04FF43A
:101A10007F43FB6197F833300833BB61FF237B6161
:101A200097F833303B614FF47F43FB6097F83330D6
:101A30000833BB6097F8422013461B0113445B0038
:101A40001A463B681A4497F8333013441B7A1A46F7
:101A5000BB699A40FB691340FA6B1343FB6397F829
:101A6000422013461B0113445B001A463B681A448C
:101A700097F8333013445B7B1A463B699A407B6985
:101A800002EA030197F8422013461B0113445B004E
:101A90001A463B681A4497F8333013449B7C1A4625
:101AA000BB689A40FB6813400B43BA6B1343BB639C
:101AB00097F83330013387F8333097F83330042BFD
:101AC000A5D997F8422013461B0113445B001A4620
:101AD0003B681344DB7903F0E003002B00D001BE28
:101AE00097F8422013461B0113445B001A463B68DB
:101AF0001344DB7D1B0103F01002FB6B42EA030180
:101B000097F8422013461B0113445B001A463B68BA
:101B100013449B79002B07D04FF4803305E000BFBE
:101B20000100DE010101DE010023194397F8422084
:101B300013461B0113445B001A463B681344DB79D0
:101B40001B0503F0F87297F843301801084B034463
:101B50000A431A6097F8422013461B0113445B00A6
:101B60001A463B6813449B780F2B03D901BE01E052
:101B70000008BD5297F8422013461B0113445B0036
:101B80001A463B6813441B78002B00F0598297F8E3
:101B9000422013461B0113445B001A463B68134462
:101BA0001B78012B00F04C8297F8422013461B0152
:101BB00013445B001A463B6813441B78022B00F069
:101BC0003F8297F8422013461B0113445B001A46DC
:101BD0003B6813441B78032B00F0328297F84220B5
:101BE00013461B0113445B001A463B6813441B78E1
:101BF000042B00F0258297F8422013461B01134462
:101C00005B001A463B6813441B78052B00F01882D2
:101C100097F8422013461B0113445B001A463B68A9
:101C200013441B78062B00F00B8297F842201346D2
:101C30001B0113445B001A463B6813441B78072BB7
:101C400000F0FE8197F8422013461B0113445B000D
:101C50001A463B6813441B78082B00F0F18197F873
:101C6000422013461B0113445B001A463B68134491
:101C70001B78092B00F0E48197F8422013461B01E2
:101C800013445B001A463B6813441B780A2B00F090
:101C9000D78197F8422013461B0113445B001A4674
:101CA0003B6813441B780B2B00F0CA8197F8422045
:101CB00013461B0113445B001A463B6813441B7810
:101CC0000C2B00F0BD8197F8422013461B011344F2
:101CD0005B001A463B6813441B780D2B00F0B08163
:101CE00097F8422013461B0113445B001A463B68D9
:101CF00013441B780E2B00F0A38197F84220134663
:101D00001B0113445B001A463B6813441B780F2BDE
:101D100000F0968197F8422013461B0113445B00A4
:101D20001A463B6813441B78102B00F0898197F802
:101D3000422013461B0113445B001A463B681344C0
:101D40001B78112B00F07C8197F8422013461B0171
:101D500013445B001A463B6813441B78122B00F0B7
:101D60006F8197F8422013461B0113445B001A460B
:101D70003B6813441B78132B00F0628197F84220D4
:101D800013461B0113445B001A463B6813441B783F
:101D9000142B00F0558197F8422013461B01134481
:101DA0005B001A463B6813441B78152B00F04881F2
:101DB00097F8422013461B0113445B001A463B6808
:101DC00013441B78162B00F03B8197F842201346F2
:101DD0001B0113445B001A463B6813441B78172B06
:101DE00000F02E8197F8422013461B0113445B003C
:101DF0001A463B6813441B78182B00F0218197F892
:101E0000422013461B0113445B001A463B681344EF
:101E10001B78192B00F0148197F8422013461B0100
:101E200013445B001A463B6813441B78202B00F0D8
:101E3000078197F8422013461B0113445B001A46A2
:101E40003B6813441B78212B00F0FA8097F842205E
:101E500013461B0113445B001A463B6813441B786E
:101E6000222B00F0ED8097F8422013461B0113440B
:101E70005B001A463B6813441B78232B00F0E0807C
:101E800097F8422013461B0113445B001A463B6837
:101E900013441B78242B00F0D38097F8422013467C
:101EA0001B0113445B001A463B6813441B78252B27
:101EB00000F0C68097F8422013461B0113445B00D4
:101EC0001A463B6813441B78262B00F0B98097F81C
:101ED000422013461B0113445B001A463B6813441F
:101EE0001B78272B00F0AC8097F8422013461B018B
:101EF00013445B001A463B6813441B782A2B00F0FE
:101F00009F8097F8422013461B0113445B001A463A
:101F10003B6813441B782B2B00F0928097F84220EB
:101F200013461B0113445B001A463B6813441B789D
:101F30002C2B00F0858097F8422013461B01134498
:101F40005B001A463B6813441B782D2B78D097F81A
:101F5000422013461B0113445B001A463B6813449E
:101F60001B78302B6CD097F8422013461B0113448A
:101F70005B001A463B6813441B78312B60D097F8FE
:101F8000422013461B0113445B001A463B6813446E
:101F90001B78322B54D097F8422013461B01134470
:101FA0005B001A463B6813441B78332B48D097F8E4
:101FB000422013461B0113445B001A463B6813443E
:101FC0001B78342B3CD097F8422013461B01134456
:101FD0005B001A463B6813441B78382B30D097F8C7
:101FE000422013461B0113445B001A463B6813440E
:101FF0001B78392B24D097F8422013461B01134439
:102000005B001A463B6813441B783A2B18D097F8AC
:10201000422013461B0113445B001A463B681344DD
:102020001B783B2B0CD097F8422013461B0113441E
:102030005B001A463B6813441B783C2B00D001BE62
:1020400097F8422013461B0113445B001A463B6875
:1020500013445B78002B30D097F8422013461B01C5
:1020600013445B001A463B6813445B78012B24D071
:1020700097F8422013461B0113445B001A463B6845
:1020800013445B78022B18D097F8422013461B01AB
:1020900013445B001A463B6813445B78032B0CD057
:1020A00097F8422013461B0113445B001A463B6815
:1020B00013445B78042B00D001BE97F842201346EE
:1020C0001B0113445B001A463B6813449B7803F0E2
:1020D0000F0197F8422013461B0113445B001A4678
:1020E0003B6813441B781B0203F47C53194397F895
:1020F000422013461B0113445B001A463B681344FD
:102100005B781B0403F4E023194397F8422013463D
:102110001B0113445B001A463B681344DB78002B19
:1021200002D04FF4002200E0002297F8433018015B
:102130006E4B03440A435A6097F8422013461B0132
:1021400013445B001A463B6813441B78032B32D1BF
:1021500097F8422013461B0113445B001A463B6864
:1021600013449B88B3F5805F0BD897F84220134641
:102170001B0113445B001A463B6813449B88002BE9
:1021800000D101BE97F843301A01584B13445968E7
:1021900097F8422013461B0113445B001A463B6824
:1021A00013449B88013B1A0597F8433018014F4BA5
:1021B00003440A435A6097F843301A014B4B1344C7
:1021C000BA6B9A60002387F8323051E097F84220CA
:1021D00013461B0113445B001A463B681A4497F8E8
:1021E00032300C335B001344DB78032B00D901BE83
:1021F0004FF47043FB6297F832300C33BB624FF4FC
:102200007F037B6297F8323010333B6297F84220AD
:1022100013461B0113445B001A463B681A4497F8A7
:1022200032300C335B0013449B781A46BB6A9A40E9
:10223000FB6A02EA030197F8422013461B0113448C
:102240005B001A463B681A4497F832300C335B0047
:102250001344DB781A463B6A9A407B6A13400B436F
:102260007A6B13437B6397F83230013387F832304F
:1022700097F83230032BA9D997F8422013461B0157
:1022800013445B001A463B6813445B7E1A467B6B23
:1022900042EA030197F8422013461B0113445B00F6
:1022A0001A463B6813441B7E1B0203F4807297F8A6
:1022B000433018010D4B03440A43DA6097F843306A
:1022C000013387F8433000237B6497F842300133B1
:1022D00087F8423097F84220FB799A42FFF48DABA1
:1022E0007B6C18464837BD4680BD00BF0008BD5214
:1022F00080B400AF074B03F550231B6A03F440730F
:10230000002B14BF01230023DBB21846BD4680BC5E
:10231000704700BF0000B05280B483B000AF0346E6
:102320003960FB71FB79042B00D901BE3B781F2B70
:1023300000D901BE7B88B3F5805F02D87B88002B73
:1023400000D101BE3B78DB00DAB27B88013B190289
:10235000074B0B400748F9791A438B01034403F5F7
:10236000302318331A6000BF0C37BD4680BC70475D
:1023700000FF0F000000B05280B483B000AF0346EE
:10238000FB71FB79042B00D901BE0A4AFB799B0142
:10239000134403F530230C331B6803F00103002BB7
:1023A00014BF01230023DBB218460C37BD4680BCA6
:1023B000704700BF0000B05280B483B000AF034646
:1023C0000A46FB711346BB80FB79042B00D901BE82
:1023D000BB88B3F5806F00D301BEBA880749FB798B
:1023E000C2F309029B010B4403F5302310331A603A
:1023F00000BF0C37BD4680BC704700BF0000B05224
:1024000080B483B000AF0346FB710B46BB8013461C
:102410007B80FB79042B00D901BEBB88B3F5806FAC
:1024200000D301BE7B88B3F5806F00D301BEBA88AC
:102430000C49FB79C2F309029B010B4403F53023DD
:1024400010331A607A880749FB79C2F309029B01AD
:102450000B4403F5302314331A6000BF0C37BD461C
:1024600080BC70470000B05290B482B000AF044608
:10247000084611461A462346FB710346BB800B46AD
:102480007B801346BB71FB79042B00D901BEBB884E
:10249000B3F5806F00D301BE7B88B3F5806F00D3A6
:1024A00001BEBB79402B02D8BB79002B00D101BE05
:1024B000194AFB7903F530539B01134404331B681D
:1024C00023F07C71BB79013B1B0503F07C72124841
:1024D000FB790A4303F530539B01034404331A602C
:1024E000BA880D49FB79C2F309029B010B4403F53D
:1024F000302310331A607A880749FB79C2F3090246
:102500009B010B4403F5302314331A6000BF0837D6
:10251000BD4690BC704700BF0000B05290B482B07E
:1025200000AF0446084611461A462346FB7103468F
:10253000BB710B467B7113463B71FB79042B00D9B1
:1025400001BE97F90630002B00DA01BE97F905307D
:10255000002B00DA01BE3B79402B02D83B79002BDF
:1025600000D101BE1A4AFB7903F530539B01134495
:1025700004331B6823F07C713B79013B1B0503F09E
:102580007C721348FB790A4303F530539B010344E3
:1025900004331A60BB799A000D49FB79C2F3090232
:1025A0009B010B4403F5302310331A607B799A00AA
:1025B0000749FB79C2F309029B010B4403F5302361
:1025C00014331A6000BF0837BD4690BC704700BF87
:1025D0000000B05280B584B000AF78600023FB608B
:1025E0007B68002B02D13F4BFB6076E0FFF780FE5B
:1025F0000346002B02D03C4BFB606EE07B681B7FE8
:10260000002B14D07B681B7F012B10D07B681B7FB5
:10261000022B0CD07B681B7F032B08D07B681B7FB1
:10262000042B04D07B681B7F052B00D001BE7B6888
:102630001B7F2E4A03F00F0302F53022C2F8003A46
:102640000023FB7215E0FA7A7B6853F82230002BE6
:102650000CD0FA7A7B6853F82220FB7A1146184690
:1026600000F046F80246FB681343FB60FB7A013337
:10267000FB72FB7A042BE6D90023BB722AE0BB7AFB
:102680007A6804339B0013445B68002B1FD0BB7A2D
:102690007A6804339B0013445B681B68002B16D0D8
:1026A000BB7A7A6804339B0013445B681979BB7A60
:1026B0007A6804339B0013445B681B68B87A0A4647
:1026C000002100F0CBF90246FB681343FB60BB7AA4
:1026D0000133BB72BB7A012BD1D9FB681846103786
:1026E000BD4680BD0200DE010101DE010000B052E6
:1026F00080B584B000AF03463960FB710023FB60F6
:102700003B68002B02D0FB79042B02D90A4BFB60FB
:102710009DE1FFF7EDFD0346002B02D0074BFB6068
:1027200095E1FB791846FFF727FE0346002B09D0F9
:10273000034BFB608BE100BF0200DE010101DE0103
:102740000201DE013B681B78002B04D03B681B783C
:10275000012B00D001BE3B685B78002B08D03B68A2
:102760005B78022B04D03B685B78032B00D001BE62
:102770003B689B78002B08D03B689B78012B04D0EA
:102780003B689B78022B00D001BE3B68DB78002BB6
:1027900020D03B68DB78012B1CD03B68DB78022B18
:1027A00018D03B68DB78032B14D03B68DB78042B14
:1027B00010D03B68DB78052B0CD03B68DB78062B10
:1027C00008D03B68DB78072B04D03B68DB78082B0C
:1027D00000D001BE3B681B79002B0CD03B681B79F5
:1027E000012B08D03B681B79022B04D03B681B7976
:1027F000032B00D001BE3B681B7803F001023B684D
:102800005B789B0003F00C031A433B689B781B0129
:1028100003F030031A433B68DB781B0203F4706358
:102820001A433B681B791B0303F4405342EA03013C
:102830003B685B791B0403F480328748FB790A43C9
:1028400003F530539B0103441A603B689B79002BCE
:1028500024D03B689B79012B20D03B689B79022BCD
:102860001CD03B689B79032B18D03B689B79042BC9
:1028700014D03B689B79052B10D03B689B79062BC5
:102880000CD03B689B79072B08D03B689B79082BC1
:1028900004D03B689B79092B00D001BE3B68DB79F3
:1028A000002B30D03B68DB79012B2CD03B68DB79E7
:1028B000022B28D03B68DB79032B24D03B68DB79E3
:1028C000042B20D03B68DB79052B1CD03B68DB79DF
:1028D000062B18D03B68DB79072B14D03B68DB79DB
:1028E000082B10D03B68DB79092B0CD03B68DB79D7
:1028F0000A2B08D03B68DB790B2B04D03B68DB79D3
:102900000C2B00D001BE3B681B7A002B1CD03B680F
:102910001B7A012B18D03B681B7A022B14D03B6822
:102920001B7A032B10D03B681B7A042B0CD03B681E
:102930001B7A052B08D03B681B7A062B04D03B681A
:102940001B7A072B00D001BE3B685B7B072B00D9AD
:1029500001BE3B689B7903F00F023B68DB791B01EA
:10296000DBB21A433B681B7A1B0203F4E0631A4391
:102970003B685B7A1B0303F480531A433B689B7AE2
:102980005B0303F400531A433B68DB7A9B0303F4B5
:1029900080431A433B681B7BDB039BB242EA030183
:1029A0003B685B7B1B0703F0E0422B48FB790A4343
:1029B00003F530539B01034404331A603B681B7AD0
:1029C000072B3AD801A252F823F000BFED290012DC
:1029D000FD2900120F2A00120F2A00120F2A0012DE
:1029E000232A0012232A0012232A00123B681A8A83
:1029F000FB7911461846FFF7DFFC20E03B68198A97
:102A00003B685A8AFB791846FFF7FAFC17E03B68E7
:102A1000198A3B685A8A3B689B7BF879FFF724FD4B
:102A20000DE03B681B8AD9B23B685B8ADAB23B682F
:102A30009B7BF879FFF772FD01E001BE00BF3B68A8
:102A4000FA7959690B4619461046FFF765FCFB6891
:102A500018461037BD4680BD0000B05290B484B017
:102A600000AF3B600346FB710B46BB7113467B71A5
:102A70000023FB60FB79012B0AD8BA797B791344D8
:102A8000802B05D87B79002B02D03B68002B02D12C
:102A9000124BFB601CE00023FB7215E0FB7A5B002D
:102AA0003A6813441C880E48FA79B979FB7A0B44CA
:102AB0002146D201134403F5303303F5807340F807
:102AC0002310FB7A0133FB72FA7A7B799A42E5D3C1
:102AD000FB6818461037BD4690BC70470200DE0107
:102AE0000000B05280B400AF074B03F550231B6ABF
:102AF00003F44073002B14BF01230023DBB21846FC
:102B0000BD4680BC704700BF0000B05280B582B0A7
:102B100000AF00237B60FFF7E5FF0346002B01D0E9
:102B2000034B7B607B6818460837BD4680BD00BFFD
:102B30000101DE0180B400AF054B03F50023D3F89B
:102B40009C35DB0FDBB21846BD4680BC704700BF2A
:102B50000000B05280B582B000AFFFF7D7FF7860B9
:102B60007B68002B06D1FFF7E5FF0346002B01D061
:102B7000034B7B607B6818460837BD4680BD00BFAD
:102B80000401DE0180B584B000AF03463960FB71FB
:102B9000FFF7E0FFF860FB68002B4ED13B68002B8D
:102BA00049D0FB79072B46D83B681B78002B0CD00B
:102BB0003B681B78012B08D03B681B78022B04D0A4
:102BC0003B681B78032B00D001BE3B685B684FF667
:102BD000FE72934204DC3B685B6813F5004F00DA39
:102BE00001BE3B689B68B3F5803F04DA3B689B6895
:102BF00013F5004F00DC01BE3B681978114AFB79E0
:102C000003F5003303F5967342F823103B685968C7
:102C10000C4AFB7903F5003303F59A7342F823104D
:102C20003B689968074AFB7903F5003303F59E7307
:102C300042F8231001E0044BFB60FB681846103794
:102C4000BD4680BD0000B0520400DE0180B584B0F6
:102C500000AF03463960FB71FFF77CFFF860FB684B
:102C6000002B47D13B68002B42D0FB79072B3FD884
:102C70003B681B88C3F30B023B689B781B039BB22A
:102C80001A433B68DB781B0403F440331A433B6868
:102C90001B799B0403F440231A433B685B791B05B3
:102CA00003F440131A433B689B799B0503F44003EC
:102CB0001A433B68DB791B0603F070631A433B68D9
:102CC0001B7A1B0703F040531A433B685B7A9B0750
:102CD00003F0804342EA03013B689B7ADA07084825
:102CE000FB790A4303F50033403340F8232001E029
:102CF000044BFB60FB6818461037BD4680BD00BF23
:102D00000000B0520400DE0180B483B000AF03467F
:102D1000FB80FB88002B03D0FB88B3F5807F00D9B4
:102D200001BEFB88054A013B02F50022C2F8AC3522
:102D300000BF0C37BD4680BC704700BF0000B052DA
:102D400080B586B000AF03463960FB71FFF702FF24
:102D500078617B69002B40F026813B68002B00F0F6
:102D60002081FB79012B00F21C81FB791E33FB6073
:102D7000FB794FF0804202FA03F3BB603B681B789B
:102D8000002B70D03B681B78012B6CD03B681B7804
:102D9000022B68D03B681B78032B64D03B681B7800
:102DA000042B60D03B681B78052B5CD03B681B78FC
:102DB000062B58D03B681B78072B54D03B681B78F8
:102DC000082B50D03B681B78092B4CD03B681B78F4
:102DD0000A2B48D03B681B780B2B44D03B681B78F0
:102DE0000C2B40D03B681B780D2B3CD03B681B78EC
:102DF0000E2B38D03B681B780F2B34D03B681B78E8
:102E0000102B30D03B681B78112B2CD03B681B78E3
:102E1000122B28D03B681B78132B24D03B681B78DF
:102E2000142B20D03B681B78152B1CD03B681B78DB
:102E3000162B18D03B681B78172B14D03B681B78D7
:102E4000182B10D03B681B78192B0CD03B681B78D3
:102E50001A2B08D03B681B781B2B04D03B681B78CF
:102E60001C2B00D001BE3B6893F82230002B28D0E9
:102E70003B6893F82230012B23D03B6893F8223033
:102E8000022B1ED03B6893F82230032B19D03B68ED
:102E900093F82230042B14D03B6893F82230052B92
:102EA0000FD03B6893F82230062B0AD03B6893F88A
:102EB0002230072B05D03B6893F82230082B00D036
:102EC00001BE3B6893F82430002B14D03B6893F884
:102ED0002430012B0FD03B6893F82430022B0AD00A
:102EE0003B6893F82430032B05D03B6893F82430DB
:102EF000042B00D001BE3B681B7803F01F023B6827
:102F00005B781B0203F480731A433B6893F822300A
:102F10001B0503F4700342EA03013B6893F8243075
:102F20001B0703F0E0422248FB790A4303F5003314
:102F300003F5847340F823201D4B03F50023D3F8D9
:102F40009025BB68DB431A403B6893F82330002B85
:102F500001D0012100E00021FB689940BB680B40D3
:102F60001349134301F50022C2F890350023FB7486
:102F700013E0FB7C3A685B001344B3F902000C4990
:102F8000FA79FB7C5201134403F5003303F5007317
:102F900041F82300FB7C0133FB74FB7C0F2BE8D949
:102FA00001E0044B7B617B6918461837BD4680BD44
:102FB0000000B0520400DE0180B586B000AF0346C9
:102FC0003960FB71FFF7C6FD78617B69002B70D11A
:102FD0003B68002B6BD0FB791B2B68D83B681B78B8
:102FE00083F00103DBB2002B03D13B689B78002BFD
:102FF0005DD1FB793B6101223B6902FA03F3FB607F
:103000003B689B78002B14D03B689B78012B10D039
:103010003B689B78022B0CD03B689B78032B08D035
:103020003B689B78042B04D03B689B78052B00D031
:1030300001BE3B681B781A463B685B785B0003F077
:1030400002031A433B68DB781B0503F470031A4341
:103050003B689B781B0603F0E06342EA03013B6890
:103060005B791B0703F0E0421448FB790A4303F540
:10307000003303F5867340F82320104B03F500233B
:10308000D3F89025FB68DB431A403B681B79002B83
:1030900001D0012100E000213B699940FB680B4011
:1030A0000649134301F50022C2F8903501E0044BB4
:1030B0007B617B6918461837BD4680BD0000B05261
:1030C0000400DE0180B584B000AF7860FFF742FDF8
:1030D000F8607B681B78002B08D07B681B78012B7D
:1030E00004D07B681B78022B00D001BE7B685B7824
:1030F00003F0F003002B00D001BEFB68002B44D18D
:103100007B68002B02D1234BFB603EE07B681B7881
:1031100003F003027B685B781B01DBB21E4913439B
:1031200001F57022C2F800310023FB722AE0FB7A1D
:103130007A6813449B78002B12D07B681B78002B95
:1031400007D07B681B78012B01D1102302E00823F4
:1031500000E02023FA7A79680A449278934200D2F8
:1031600001BEFB7A7A6813449B785A1E0A49FB7A9F
:1031700002F01F0203F57033443341F82320FB7A39
:103180000133FB72FB7A032BD1D9FB681846103749
:10319000BD4680BD0400DE010000B05280B58CB099
:1031A00000AF78600023FB627B68002B02D19D4B4F
:1031B000FB624DE2FFF796FC0346002B02D09A4BD0
:1031C000FB6245E2FFF7B6FC0346002B02D0974BAB
:1031D000FB623DE24FF00D53954AD3F8303602F5CD
:1031E000E02213614FF00D53914AD3F8343602F5C3
:1031F000E02253614FF00D538D4AD3F8383602F573
:10320000E02293614FF00D53894AD3F83C3602F522
:10321000E022D3614FF00D53854AD3F8943602F57E
:10322000E02213664FF00D53814AD3F8983602F529
:10323000E02253667E4B03F5E0231B697D4A136051
:103240007B4B03F5E0235B697A4A5360784B03F5C7
:10325000E0239B69774A9360754B03F5E023DB69B4
:10326000744AD360002387F82B3000237B6200234D
:103270003B627B6893F8D430002B0AD07B6893F8CC
:10328000D430012B05D07B6893F8D430022B00D0CA
:1032900001BE7B6893F8D530002B0AD07B6893F889
:1032A000D530012B05D07B6893F8D530022B00D0A8
:1032B00001BE7B6893F8D630002B0AD07B6893F868
:1032C000D630012B05D07B6893F8D630022B00D086
:1032D00001BE7B6893F8D730002B0AD07B6893F847
:1032E000D730012B05D07B6893F8D730022B00D064
:1032F00001BE7B6893F8D43003F003027B6893F837
:10330000D5309B0003F00C031A437B6893F8D6304A
:103310001B0103F030031A437B6893F8D7309B01FD
:10332000DBB213437B6100233B61FF23FB60404B17
:1033300003F50023D3F80027FB68DB431A407969C3
:103340003B699940FB680B403949134301F5002262
:10335000C2F80037364B03F50023D3F8003723F0CB
:1033600000437A689279002A02D04FF0004200E0D0
:1033700000222F49134301F50022C2F800377B6871
:103380001B78002B04D07B681B78012B00D001BE7A
:103390007B681B7803F003037A685278002A01D017
:1033A000042200E0002213437A689278002A01D0B8
:1033B000102200E0002213437A68D278002A01D05C
:1033C000202200E0002213437A681279002A01D0FB
:1033D000402200E0002213437A685279002A02D08A
:1033E0004FF4807200E000221149134301F50022DE
:1033F000C2F800340023FB770EE0FB7F7A681344A9
:103400009B7B1A46FB7F5B0002FA03F37A6A134345
:103410007B62FB7F0133FB77FB7F0B2BEDD9002316
:10342000BB7718E00400DE010101DE010401DE01CA
:103430000000B052AC060034BB7F7A6813449B7E18
:103440001A46BB7F5B0002FA03F33A6A13433B62FE
:10345000BB7F0133BB77BB7F032BEDD93B6A1A06D9
:103460007E497B6A134301F50022C2F808347B6869
:103470001B8903F47043002B00D001BE7B689B7A4C
:1034800003F0F003002B00D001BE7B681B89C3F35F
:103490000B027B689B7A1B039BB27049134301F5B7
:1034A0000022C2F804347B689B891846FFF72CFC85
:1034B00000237B7725E07B7F7A680C335B00134425
:1034C000DB88002B08D07B7F7A680C335B001344C9
:1034D000DB88B3F5806F00D901BE7B7F7A680C333F
:1034E0005B001344DB885A1E5C497B7FC2F30902F0
:1034F00003F5003303F5827341F823207B7F01330A
:103500007B777B7F022BD6D9544B03F500231A46D9
:103510000023C2F8903500233B771BE03B7F7A689D
:1035200008339B0013445B68002B10D03B7F7A6804
:1035300008339B0013445A683B7F11461846FFF737
:103540003BFD0346002B02D0012387F82B303B7F45
:1035500001333B773B7F1B2BE0D90023FB761BE03D
:10356000FB7E7A6824339B0013445B68002B10D0E9
:10357000FB7E7A6824339B0013445A68FB7E114615
:103580001846FFF763FB0346002B02D0012387F8A0
:103590002B30FB7E0133FB76FB7E072BE0D900232B
:1035A000BB761BE0BB7E7A682C339B0013445B68C0
:1035B000002B10D0BB7E7A682C339B0013445A68D2
:1035C000BB7E11461846FFF7DDFA0346002B02D0FA
:1035D000012387F82B30BB7E0133BB76BB7E072BE4
:1035E000E0D900237B7619E07A7E7B68363253F887
:1035F0002230002B0FD07A7E7B68363253F822209F
:103600007B7E11461846FFF79BFB0346002B02D03A
:10361000012387F82B307B7E01337B767B7E012B69
:10362000E2D97B68D3F8E030002B0BD07B68D3F86D
:10363000E0301846FFF746FD0346002B02D0012379
:1036400087F82B3097F82B30002B01D0044BFB620E
:10365000FB6A18463037BD4680BD00BF0000B0523F
:103660000400DE0180B487B000AFBA607B6003461F
:10367000FB810B467B735B4B7B610023FB74002358
:10368000BB74FB891B0A9BB2FB740023BB74BB7C1D
:10369000002B00D001BEFB7CBA7C002A01D107229E
:1036A00000E000229A4200D801BE7B7B002B48D16B
:1036B000BB7C002B13D1FB7C032B07D8FB7CDB00EE
:1036C0004FF4807222FA03F3DBB209E0FB7C043B87
:1036D000DB0040F6022222FA03F3DBB200E0002313
:1036E000BA68934278D97B68FF2B75D8BB7C3E4A79
:1036F00002FB03F303F1A44303F580231946FB7C8B
:10370000DA02BB68134403F5806351F8233023F4D5
:103710007F417B681B029AB2BB7C334800FB03F3FA
:1037200003F1A44303F580231846FB7C0A43D90226
:10373000BB680B4403F5806340F8232000237B61C2
:103740004AE07B7B012B47D1BB7C002B0DD1FB7C5E
:10375000032B08D9FB7C043BDB0040F2014222FA38
:1037600003F3DBB202E0002300E00023BA689342D7
:1037700032D97B68B3F5803F2ED2BB7C1A4A02FB5C
:1037800003F303F1A44303F580231946FB7CDA021B
:10379000BB68134403F5A06351F8233023F47F0280
:1037A00022F47F427B681B0223F07F4323F0FF0358
:1037B000B97C0D4800FB01F101F1A44101F5802124
:1037C0000846F97C1A43C902BB680B4403F5A063A1
:1037D00040F8232000237B617B6918461C37BD46D7
:1037E00080BC704701004A000000FCAD90B484B07A
:1037F00000AF03463A60FB800B467B71554BFB6084
:103800000023FB720023BB7200237B72FB881B0A20
:103810009BB2FB720023BB72FB887B72BB7A002BCE
:1038200000D001BEFB7ABA7A002A01D1072200E05B
:1038300000229A4200D801BE7B79032B00F28380DC
:103840007B79002B1AD1BB7A002B13D1FB7A032B87
:1038500007D8FB7ADB004FF4807222FA03F3DBB265
:1038600009E0FB7A043BDB0040F6022222FA03F374
:10387000DBB200E000233A6893424AD87B79012BFF
:1038800014D1BB7A002B0DD1FB7A032B08D9FB7A1C
:10389000043BDB0040F2014222FA03F3DBB202E018
:1038A000002300E000233A68934232D87B79022B50
:1038B00013D1BB7A002B0CD1FB7A032B07D9FB7AEF
:1038C000043BDB00244A22FA03F3DBB202E00023CC
:1038D00000E000233A6893421BD87B79032B32D156
:1038E000BB7A002B11D1FB7A032B06D8FB7ADB00C5
:1038F000012222FA03F3DBB208E0FB7A043BDB008F
:10390000012222FA03F3DBB200E000233A6893427B
:1039100019D97B791B0203F440703B68DAB2BB7A99
:103920000E4901FB03F303F1A44303F580231C4676
:10393000F97A7B7A0243C9020B4403F5407344F8D9
:1039400023200023FB60FB6818461037BD4690BC5F
:10395000704700BF01004A00030001000000FCADF9
:1039600080B485B000AF03463A60FB800B467B71A4
:103970005A4BFB600023FB720023BB72FB881B0ABF
:103980009BB2FB720023BB72BB7A002B00D001BE3E
:10399000FB7ABA7A002A01D1072200E000229A427B
:1039A00000D801BE7B79032B00F291807B79002B3C
:1039B0001AD1BB7A002B13D1FB7A032B07D8FB7AE1
:1039C000DB004FF4807222FA03F3DBB209E0FB7AEA
:1039D000043BDB0040F6022222FA03F3DBB200E0F4
:1039E00000233A6893424AD87B79012B14D1BB7AE1
:1039F000002B0DD1FB7A032B08D9FB7A043BDB00AB
:103A000040F2014222FA03F3DBB202E0002300E0BD
:103A100000233A68934232D87B79022B13D1BB7AC8
:103A2000002B0CD1FB7A032B07D9FB7A043BDB007C
:103A30002B4A22FA03F3DBB202E0002300E000236A
:103A40003A6893421BD87B79032B40D1BB7A002B79
:103A500011D1FB7A032B06D8FB7ADB00012222FA74
:103A600003F3DBB208E0FB7A043BDB00012222FA1D
:103A700003F3DBB200E000233A68934227D97B7955
:103A80001B0203F440723B68DBB242EA0301BB7ADB
:103A9000144A02FB03F303F1A44303F58023184601
:103AA000FA7A41F0034343F47F0352030244136064
:103AB000BB7A0C4A02FB03F303F1A44303F5802312
:103AC0001A46FB7A5B0313441B680023FB60FB6808
:103AD00018461437BD4680BC704700BF01004A003D
:103AE000030001000000FCAD80B485B000AF0346C8
:103AF0003A60FB800B467B71524BFB600023FB72EC
:103B00000023BB72FB881B0A9BB2FB720023BB72B3
:103B1000BB7A002B00D001BEFB7ABA7A002A01D111
:103B2000072200E000229A4200D801BE7B79032BD5
:103B300000F281807B79002B1AD1BB7A002B13D144
:103B4000FB7A032B07D8FB7ADB004FF4807222FA52
:103B500003F3DBB209E0FB7A043BDB0040F6022210
:103B600022FA03F3DBB200E000233A6893424AD81A
:103B70007B79012B14D1BB7A002B0DD1FB7A032B5F
:103B800008D9FB7A043BDB0040F2014222FA03F33E
:103B9000DBB202E0002300E000233A68934232D80F
:103BA0007B79022B13D1BB7A002B0CD1FB7A032B30
:103BB00007D9FB7A043BDB00234A22FA03F3DBB28A
:103BC00002E0002300E000233A6893421BD87B798F
:103BD000032B30D1BB7A002B11D1FB7A032B06D8F3
:103BE000FB7ADB00012222FA03F3DBB208E0FB7A66
:103BF000043BDB00012222FA03F3DBB200E00023E6
:103C00003A68934217D97B791B0203F440723B68F0
:103C1000DBB21A43BB7A0D4901FB03F303F1A44362
:103C200003F580231946FB7A42F080425B030B4484
:103C30001A600023FB60FB6818461437BD4680BC41
:103C4000704700BF01004A00030001000000FCAD06
:103C500080B582B000AF03463A60FB800B467B71B3
:103C60007979FB883A681846FFF7C0FD0346184685
:103C70000837BD4680BD000080B483B000AF034666
:103C8000FB71FB79042B00D901BE084B1B6823F4A0
:103C9000E062FB791B0203F4E063044913430B6009
:103CA00000BF0C37BD4680BC704700BF00002252E9
:103CB00080B483B000AF0346FB71FB79072B00D9BA
:103CC00001BE0A4B03F58053D3F8003523F00702F9
:103CD000FB7903F007030549134301F58052C2F84D
:103CE000003500BF0C37BD4680BC70470000205235
:103CF00080B487B000AFF8600B467A60FB722B4B44
:103D00007B61FB681B0AFB74FB68DBB2FB60FB7C1E
:103D1000002B00D001BEFB68052B00D901BEFB7A49
:103D2000002B06D0FB7A012B03D0FB7A022B00D0AC
:103D300001BEFB7A022B2CD0022B2DDC002B02D0F3
:103D4000012B13D028E0FB7C4FF02E4202FB03F343
:103D500003F1A4431A46FB689B01134403F5804317
:103D600010337A681A6000237B6118E0FB7C4FF007
:103D70002E4202FB03F303F1A4431A46FB689B01A6
:103D8000134403F5804314337A681A6000237B617F
:103D900005E0064B7B6102E0044B7B6100BF7B6961
:103DA00018461C37BD4680BC704700BF01004A0062
:103DB00080B485B000AF78600B46FB700023FB60D9
:103DC0007B681B0AFB727B68DBB27B60FB7A002B93
:103DD00000D001BE7B68052B00D901BEFB78002B0B
:103DE00006D0FB78012B03D0FB78022B00D001BE5C
:103DF000FB78022B28D0022B37DC002B02D0012BC2
:103E000011D032E0FB7A4FF02E4202FB03F303F1B4
:103E1000A4431A467B689B01134403F58043103387
:103E20001B68FB6024E0FB7A4FF02E4202FB03F399
:103E300003F1A4431A467B689B01134403F58043B6
:103E400014331B68FB6013E0FB7A4FF02E4202FB39
:103E500003F303F1A4431A467B689B01134403F563
:103E6000804318331B68FB6002E0044BFB6000BF1B
:103E7000FB6818461437BD4680BC704701004A00F5
:103E800080B584B000AF7860124BFB60786800F0BA
:103E9000B7F8B8607B68062B16D8BB680E4A934209
:103EA00010D80E4A7B6803F5926352F823300B4911
:103EB00043F000427B6803F5926341F8232000231E
:103EC000FB6001E0064BFB60FB6818461037BD46FF
:103ED00080BD00BF01004A00001C4E0E00002052B1
:103EE00003004A0080B485B000AF78600B46FB70D9
:103EF000104BFB607B68062B16D8FB780F2B13D872
:103F00000D4A7B6803F5926352F8233023F00F02C9
:103F1000FB7803F00F0308491A437B6803F59263AB
:103F200041F823200023FB60FB6818461437BD4688
:103F300080BC704701004A000000205280B483B06A
:103F400000AF78607B68062B00D901BE074A7B680A
:103F500003F5926352F82330DBB203F00F03DBB2B8
:103F600018460C37BD4680BC704700BF0000205289
:103F700080B485B000AF78600B46FB70114BFB60DE
:103F80007B68062B17D8FB780F2B14D80E4A7B685A
:103F900003F5926352F8233023F47062FB781B021E
:103FA00003F4706308491A437B6803F5926341F890
:103FB00023200023FB60FB6818461437BD4680BCF5
:103FC000704700BF01004A000000205280B483B057
:103FD00000AF78607B68062B00D901BE074A7B687A
:103FE00003F5926352F823301B0A03F00F03DBB290
:103FF00018460C37BD4680BC704700BF00002052F9
:1040000080B586B000AF78607868FFF7DFFF0346C1
:1040100001337B617868FFF791FF03463B613869A4
:1040200000F014FAF860786800F012F80346002BEC
:1040300001D0064B06E07B695A08FB681A447B698D
:10404000B2FBF3F318461837BD4680BD00127A0064
:1040500080B485B000AF78600023FB737B68062BCB
:104060000DD80A4A7B6803F5946352F8233003F4B1
:104070008073002B0CBF01230023DBB200E0FB7B2D
:1040800018461437BD4680BC704700BF0000205260
:1040900080B400AF064B1B6903F00403002B14BF70
:1040A00001230023DBB21846BD4680BC704700BF29
:1040B0000000225280B400AF00231846BD4680BCE9
:1040C000704780B400AF00231846BD4680BC7047DF
:1040D00080B400AF074B03F58053D3F84835054A49
:1040E00043F0004302F58052C2F8483500BFBD4698
:1040F00080BC70470000205280B483B000AF0F4BEB
:104100007B600F4B03F540431B6803F00103002B5A
:104110000DD10B4B03F58053D3F84835084A23F0F3
:10412000004302F58052C2F8483500237B607B686B
:1041300018460C37BD4680BC704700BF03004A00DC
:104140000000205280B483B000AF0346FB710C4BDB
:1041500003F58053D3F8483523F00103FA79002A98
:1041600001D0012200E000220549134301F58052ED
:10417000C2F8483500BF0C37BD4680BC704700BF51
:104180000000205280B400AF024B1B681846BD46A9
:1041900080BC7047C006003480B483B000AF0C4BC5
:1041A00003F58053D3F824357B6003233B603A68E2
:1041B0007B6813403A689A4203D07B6803F003039C
:1041C00000E0022318460C37BD4680BC704700BF94
:1041D0000000205280B500AFFFF7DEFF0346022B40
:1041E00002D1034B1B6800E00023184680BD00BFCE
:1041F000C406003480B400AF054B03F58053D3F8F8
:104200006035DB0FDBB21846BD4680BC704700BF8F
:104210000000205280B400AF074B03F58053D3F861
:104220006035054A43F0004302F58052C2F860351C
:1042300000BFBD4680BC70470000205280B485B0EE
:1042400000AF78600B467B80234BFB607B88002BA4
:104250001AD07B88012B17D07B88022B14D07B8847
:10426000032B11D07B88062B0ED07B88B3F5887F7B
:104270000AD07B8840F21112934205D07B8840F22D
:104280001312934200D001BE7B68062B1DD87B8899
:10429000FF2B0FD97B88114903F01F027B68403345
:1042A00041F823200D4A7B6803F59063042142F80E
:1042B000231008E07B88094903F007027B6803F5B7
:1042C000906341F823200023FB60FB6818461437F5
:1042D000BD4680BC704700BF01004A00000020526C
:1042E00080B485B000AF78607B68062B00D901BE32
:1042F0000F4A7B6803F5906352F823309BB203F0BA
:104300000703FB81FB89042B0BD1094A7B684033EF
:1043100052F823309BB203F01F039BB243F4807327
:10432000FB81FB8918461437BD4680BC704700BF2F
:104330000000205280B584B000AF78607B68062B07
:1043400000D901BE0023FB607868FFF7C9FF034670
:10435000062B25DC002B0FDA6BE0A3F58873032B0B
:1043600067D801A252F823F0034400121D44001242
:10437000E7430012CD430012062B5AD801A252F88F
:1043800023F000BFAF430012B5430012BD4300123B
:10439000C54300123344001233440012EF430012AD
:1043A000B3F58A7F45DAB3F5887FD6DA41E0244B4E
:1043B000FB603FE0FFF7E6FEF8603BE0FFF70AFF37
:1043C000F86037E0FFF776FEF86033E01D4B03F549
:1043D0008053D3F82835002B02DA4FF4004300E075
:1043E0000023FB6026E0FFF76CFEF86022E0FFF799
:1043F00001FF0346002B01D0134B00E00023FB60BC
:1044000018E0104B03F58053D3F84835002B02DA3F
:104410004FF4004300E00023FB600BE0FFF738FEA1
:104420000346002B02D04FF4004300E00023FB6062
:1044300000E000BFFB6818461037BD4680BD00BFD6
:1044400000127A0000002052006CDC0280B584B0BB
:1044500000AF78607B68062B00D901BE7868FFF753
:1044600069FFF8607B68002B08D100F01DF8034657
:10447000002B03D000F09AF8F8600FE07B68002B67
:104480000CD07B68022B09D8786800F075FD0346D4
:10449000002B03D0786800F0D9FDF860FB6818465F
:1044A0001037BD4680BD000080B400AF054B03F55A
:1044B0008053D3F83035DB0FDBB21846BD4680BCE5
:1044C000704700BF0000205280B485B000AF786014
:1044D0007B68002B00D101BE334B03F58053D3F82A
:1044E0003035FB60FB68C3F311027B681A60FB6820
:1044F00003F08073002B14BF01230023DAB27B6822
:10450000DA71294B03F58053D3F83435FB60FB682F
:104510009BB2C3F30C039AB27B689A80FB681B0CB6
:104520009BB2DBB29AB27B681A811F4B03F58053B2
:10453000D3F83835FB60FB68DBB203F00F03DAB267
:104540007B689A72FB681B09DBB203F00F03DAB2D7
:104550007B68DA72FB681B0A9BB2C3F30C039AB246
:104560007B689A81FB681B0F03F00303DAB27B6858
:104570009A730D4B03F58053D3F83C35FB60FB6811
:104580001B0A03F00703DAB27B689A71FB681B0C05
:104590009BB2C3F308039AB27B681A8200BF143738
:1045A000BD4680BC704700BF000020522DE9B04FCF
:1045B00098B000AF0023FB6507F1380200231360B9
:1045C00053609360D360136107F138031846FFF717
:1045D0007BFFFFF769FF0346002B05D097F84630B5
:1045E000022B01D0012300E0002387F85B3097F80D
:1045F0005B3003F0010387F85B30BB6B7B65BB8FDF
:104600003B6597F83F30002B01D0022300E00123E7
:10461000FB6497F85B30002B6DD03B6D002B6AD0AC
:104620000020FFF787FEF865FB6D00223B627A628F
:104630007B6D00223B637A63D7E908010B463A6B36
:1046400002FB03F27B6B84460CFB03F3134402462C
:10465000396BA2FB01894B4499463B6D0022BB613B
:10466000FA61FB6C0022BB62FA62D7E906010B46D5
:10467000BA6A02FB03F2FB6A84460CFB03F31344A1
:104680000246B96AA2FB01452B441D464FF00002C9
:104690004FF00003620842EAC5726B0818EB020192
:1046A000396149EB03037B613B6D0022BB60FA601B
:1046B000FB6C00223B607A60D7E902342246D7E9DE
:1046C0000089414601FB02F24D4618462146034649
:1046D00003FB05F3134402464146A2FB01AB5B44D6
:1046E0009B4652465B46D7E9040101F01DFC024699
:1046F0000B461346FB65FB6D18466037BD46BDE8AB
:10470000B08F000080B483B000AF78607B68012B6D
:1047100000D901BE064A7B68D0335B0113441B6895
:10472000DB0FDBB218460C37BD4680BC704700BFBC
:104730000000205280B584B000AF7860164BFB605B
:104740007B68012B00D901BE144A7B68D0335B0122
:1047500013441B6823F04053104943F000527B6818
:10476000D0335B010B441A60012000F0E7FC0B4AD8
:104770007B68D0335B0113441B68084923F0004277
:104780007B68D0335B010B441A600023FB60FB683D
:1047900018461037BD4680BD01004A000000205277
:1047A00080B584B000AF786039600023FB607B681F
:1047B000012B00D901BE7868FFF7A4FF0346002B48
:1047C00002D0994BFB6029E13B681B689B78002B6A
:1047D00018D03B681B689B78102B13D83B681B686C
:1047E0005B78002B0ED03B681B685B78102B09D8D8
:1047F0003B681B681B780F2B04D93B681B681B7830
:10480000C82B02D9894BFB6008E13B681B681B7908
:10481000022B00F0EE803B681B681B781A463B6851
:104820001B685B781B0203F4F8531A433B681B6850
:104830009B781B0403F4F8131A433B681B68DB786E
:10484000DB0603F000637A491A437B68D0335B01CF
:104850000B441A603B681B689B6823F07F423B68EF
:104860001B681B7B1B0703F0E0431A433B681B6874
:104870005B7BDB076E491A437B68D0335B010B44DB
:1048800004331A603B681B681B69C3F309023B6869
:104890001B681B7D1B0403F4E0231A433B681B6861
:1048A0005B7D1B0603F080731A433B681B689B7D8E
:1048B0001B0703F080531A433B681B68DB7DDB0753
:1048C0005B491A437B685B010B4403F5D053083303
:1048D0001A603B681B689B69C3F30A023B681B684C
:1048E000DB691B0403F440331A433B681B681B6AF3
:1048F0009B0403F440231A433B681B685B6A1B0557
:1049000003F440131A433B681B6893F828301B06D6
:1049100003F0807346491A437B685B010B4403F53F
:10492000D0530C331A603B681B68DB6A03F07F02CC
:104930003B681B681B6B1B0203F4FE431A433B6876
:104940001B685B6B1B0403F4FE031A433B681B6884
:104950009B6B1B0603F0FE4335491A437B685B01E2
:104960000B4403F5D05310331A603B681B68DB6BB4
:1049700003F07F023B681B681B6C1B0203F4FE43C1
:104980001A433B681B685B6C1B0403F4FE031A4369
:104990003B681B689B6C1B0603F0FE4324491A43CB
:1049A0007B685B010B4403F5D05314331A603B68FA
:1049B0001B68DB6C03F07F023B681B681B6D1B02EE
:1049C00003F4FE431A433B681B685B6D1B0403F44E
:1049D000FE031A433B681B689B6D1B0603F0FE43F6
:1049E00013491A437B685B010B4403F5D05318331A
:1049F0001A600F4A7B68D0335B0113441B6823F0B5
:104A000040523B681B681B791B0703F04053084961
:104A10001A437B68D0335B010B441A60FB6818466D
:104A20001037BD4680BD00BF03004A0001004A00A8
:104A30000000205280B59CB000AF78603960A14B77
:104A4000FB667B68012B00D901BE3B681B681846DA
:104A50005C231A46002101F007FC9B4A7B68D03397
:104A60005B0113441B68BB663B681B68BA6ED2B21D
:104A70001A70BB6E1B0ADAB23B681B6802F01F0299
:104A8000D2B25A70BB6E1B0CDAB23B681B6802F0E4
:104A90001F02D2B29A70BB6E03F000623B681B68C3
:104AA000002A14BF01220022D2B2DA70BB6E1B0FA3
:104AB00003F003023B681B68D2B21A71824A7B681A
:104AC000D0335B01134404331B68BB663B681B682F
:104AD000BA6E22F07F429A60BB6E1B0F03F0070292
:104AE0003B681B68002A14BF01220022D2B21A734D
:104AF000BA6E3B681B68D20FD2B25A73724A7B6897
:104B00005B01134403F5D05308331B68BB66BB6ECF
:104B1000DAB23B681B681A61BB6E1B0CDAB23B68E9
:104B20001B6802F00702D2B21A75BB6E03F08072E6
:104B30003B681B68002A14BF01220022D2B25A75BA
:104B4000BB6E03F080523B681B68002A14BF012231
:104B50000022D2B29A75BA6E3B681B68D20FD2B2ED
:104B6000DA75594A7B685B01134403F5D0530C3363
:104B70001B68BB66BB6EDAB23B681B689A61BB6E92
:104B80001B0CDBB21A463B681B6802F00302DA61B9
:104B9000BB6E9B0CDBB21A463B681B6802F003023B
:104BA0001A62BB6E1B0DDBB21A463B681B6802F033
:104BB00003025A62BB6E03F080723B681B68002AD6
:104BC00014BF01220022D2B283F828203E4A7B681B
:104BD0005B01134403F5D05310331B68BB66BB6EF7
:104BE000DBB21A463B681B6802F07F02DA62BB6EDA
:104BF0001B0ADBB21A463B681B6802F07F021A638D
:104C0000BB6E1B0CDBB21A463B681B6802F07F02CE
:104C10005A63BB6E1B0EDBB21A463B681B6802F080
:104C20007F029A63284A7B685B01134403F5D053E3
:104C300014331B68BB66BB6EDBB21A463B681B684D
:104C400002F07F02DA62BB6E1B0ADBB21A463B68D7
:104C50001B6802F07F021A63BB6E1B0CDBB21A46A4
:104C60003B681B6802F07F025A63BB6E1B0EDBB20F
:104C70001A463B681B6802F07F029A63124A7B68FF
:104C80005B01134403F5D05318331B68BB66BB6E3E
:104C9000DBB21A463B681B6802F07F02DA62BB6E29
:104CA0001B0ADBB21A463B681B6802F07F021A63DC
:104CB000BB6E1B0CDBB21A463B681B6802F07F021E
:104CC0005A6303E001004A0000002052BB6E1B0E35
:104CD000DBB21A463B681B6802F07F029A6300232E
:104CE000FB66FB6E18467037BD4680BD80B584B04C
:104CF00000AF786039603D4BFB603B68002B0CBF18
:104D000001230023FB727B68012B00D901BE384AC6
:104D10007B68D0335B0113441B68354943F0004284
:104D20007B68D0335B010B441A6005E0012000F082
:104D300005FA3B68013B3B602D4A7B685B011344ED
:104D400003F5D0531C331B6803F00103002B02D181
:104D50003B68002BEAD1FB7A002B02D13B68002B89
:104D60001BD0234A7B68D0335B0113441B681B0FA5
:104D700003F00303022B0DD11D4A7B68D0335B0186
:104D800013441B681A4943F040527B68D0335B01DF
:104D90000B441A600023FB6022E0154A7B68D03385
:104DA0005B0113441B6823F04053114943F0005248
:104DB0007B68D0335B010B441A60012000F0BEF920
:104DC0000B4A7B68D0335B0113441B68084923F00E
:104DD00000427B68D0335B010B441A60054BFB60DB
:104DE000FB6818461037BD4680BD00BF01004A0071
:104DF0000000205202004A002DE9F04FC5B000AF7C
:104E000078630023C7F80C317B6B012B00D901BEFE
:104E100007F19C005C231A46002101F025FA07F1F6
:104E20009C03FB6307F13C031946786BFFF702FE16
:104E3000786BFFF767FC0346002B05D0FB6B1B79F3
:104E4000022B01D0012300E0002387F80B3197F8F3
:104E50000B3103F0010387F80B31FB6B1B78C7F8AC
:104E60000431FB6B5B78C7F80031FB6B9B78C7F8AC
:104E7000FC30FB6B9B68C7F8F83097F80B31002BC0
:104E800072D0D7F80031002B6ED0D7F8FC30002B51
:104E90006AD07B6B01337B63786BFFF74BFAC7F803
:104EA0000C01D7F80C3100223B627A62D7F804314A
:104EB0000022BB61FA61D7E906120B461B0AFB62AE
:104EC0000B461B06BB62D7F8F83000223B617A61C3
:104ED000BB6AD7E9040102469C180B46FA6A42EB0A
:104EE00003031D46D7E908010B4604FB03F2034602
:104EF00003FB05F313440246A2FB04894B44994685
:104F0000D7F800310022BB60FA60D7F8FC300022ED
:104F10003B607A60D7E902342246D7E90056294639
:104F200001FB02F2B44618462146034603FB0CF38C
:104F3000134402462946A2FB01AB5B449B46524602
:104F40005B464046494600F0EFFF02460B461046DE
:104F500019464FF000024FF00003020E42EA012210
:104F60000B0E1346C7F80C31D7F80C31184607F56D
:104F70008A77BD46BDE8F08F80B582B000AF78601B
:104F80007B68013B7B607B68012B00D901BE7B689D
:104F9000012B04D87868FFF7B5FB034600E0002337
:104FA00018460837BD4680BD80B582B000AF786036
:104FB0007B68013B7B607B68012B00D901BE7B686D
:104FC000012B04D87868FFF7B5FB034600E0024BDD
:104FD00018460837BD4680BD01004A0080B582B042
:104FE00000AF786039607B68013B7B607B68012B98
:104FF00000D901BE7B68012B05D839687868FFF7B6
:10500000CFFB034600E0024B18460837BD4680BD83
:1050100001004A0080B582B000AF786039607B68DB
:10502000013B7B607B68012B00D901BE7B68012BB3
:1050300005D839687868FFF759FE034600E0024B4F
:1050400018460837BD4680BD01004A0080B582B0D1
:1050500000AF78607B68002B00D101BE7B68013B0C
:105060007B607B68012B00D901BE7B68012B04D8D3
:105070007868FFF7C1FE034600E0002318460837B2
:10508000BD4680BD80B485B000AF78600B46FB7034
:105090001E4BFB60FB78013B072B2DD801A252F879
:1050A00023F000BFC5500012DF500012F95000126B
:1050B000EB500012F9500012F9500012F950001292
:1050C000F1500012124B1B7883F00103DBB2002B6E
:1050D00014D0104B01221A700023FB600EE00D4B20
:1050E00000221A700023FB6009E00023FB6006E049
:1050F000084B00221A7002E000BF00E000BFFB680E
:1051000018461437BD4680BC704700BFFF00420000
:10511000BC060034BD06003480B400AF054B9B6C68
:10512000002B01DB002300E0034B1846BD4680BC8A
:10513000704700BF000022520300460080B582B0D5
:1051400000AF0346FB80FB88054A127802FB03F39D
:105150001846FBF775FE00BF0837BD4680BD00BF8F
:105160003003003480B500AF044B4FF000429A6426
:10517000FFF7D2FF0346184680BD00BF0000225251
:1051800080B483B000AF184B03F58053D3F80038D8
:105190007B60154B03F580539B68DBB2002B03D07B
:1051A0007B6843F000437B600F4B03F58053D3F8DB
:1051B00004389BB2002B03D07B6843F480337B60C0
:1051C000094B03F58053D3F8043803F48033002BE4
:1051D00003D07B6843F400337B607B6818460C3750
:1051E000BD4680BC704700BF0000205280B582B031
:1051F00000AF78607B681B681F4A13607B680433CC
:105200001B681D4A53607B6808331B681A4A936009
:105210007B680C331B68184AD3607B6810331B68AB
:10522000154A13617B6814331B68134A53617B680A
:1052300018331B68104A93617B681C331B680E4A45
:10524000D3610E4B9B6A0C4A13620C4BDB6A0A4A11
:1052500053620A4B5B6A084A9362084B5B6B064ACF
:10526000D362064B9B6B044A136300F009F800BF3E
:105270000837BD4680BD00BF2805003400ED00E0C2
:1052800080B400AFFEE7000080B485B000AF0346F5
:105290003960FB71FB79002B0CD03A6813469B00F8
:1052A00013441B011A46114BA3FB02239B09013334
:1052B000FB600BE03A6813461B019B1A9B001A46E1
:1052C0000A4BA3FB02239B090133FB60084B1B68BD
:1052D00023F00F02FB6803F00F03054913430B6033
:1052E00000BF1437BD4680BC704700BFD34D62106D
:1052F0000000155280B483B000AF78600B46FB709D
:10530000FB78002B01D0012200E000227B680449D9
:1053100013430B6000BF0C37BD4680BC704700BF15
:105320003004205280B582B000AF78607B68002BDB
:1053300000D101BE786800F0A3FD002318460837AD
:10534000BD4680BD80B582B000AF78607B68002B21
:1053500000D101BE786800F0D3FD03461846083737
:10536000BD4680BD80B584B000AF786039600B4B1E
:10537000FB607B68002B00D101BE3B680A2B00D983
:1053800001BE3B68DBB21946786800F091FD00234E
:10539000FB60FB6818461037BD4680BD0300420025
:1053A00080B500AF00F090F80346002B0BD0074803
:1053B000FFF7B8FF0648FFF7B5FF0648FFF7B2FF53
:1053C000012000F009F800BF80BD00BF001021528D
:1053D000005010520000105280B584B000AF034658
:1053E000FB71204BFB60FB79062B24D0062B31DCB4
:1053F000012B02D0052B0FD02CE005211A48FFF716
:10540000B1FF05211948FFF7ADFF02211848FFF74A
:10541000A9FF0023FB6020E002211348FFF7A2FF51
:1054200000211248FFF79EFF02211148FFF79AFF63
:105430000023FB6011E000210B48FFF793FF0021E0
:105440000A48FFF78FFF00210948FFF78BFF002371
:10545000FB6002E0074BFB6000BFFB68184610379B
:10546000BD4680BDFF004200001021520050105286
:10547000000010520100420080B582B000AF114818
:10548000FFF760FF03463B603B68052B09D03B6894
:10549000052B0FD83B68002B09D03B68022B03D0AB
:1054A00008E00123FB7108E00523FB7105E00623FA
:1054B000FB7102E00023FB7100BFFB79184608373F
:1054C000BD4680BD0010215280B584B000AF0223DC
:1054D000FB73144B03F58053D3F80038BB60114BBA
:1054E00003F58053D3F804387B60BB68002B02D0EF
:1054F0007B68002B10D1FFF7BFFF0346052B02D0BE
:10550000062B03D005E00023FB7305E00123FB73AA
:1055100002E00223FB7300BFFB7B18461037BD4639
:1055200080BD00BF0000205280B400AF074B03F5E0
:1055300080535B6803F48033002B14BF01230023E6
:10554000DBB21846BD4680BC704700BF0000205249
:1055500080B400AF074B03F580535B6803F0010391
:10556000002B0CBF01230023DBB21846BD4680BCD4
:10557000704700BF0000205280B586B000AF0346E0
:10558000FB71FB79002B09D0FB79022B06D0FB794C
:10559000012B03D0FB79032B00D001BE614B7B6153
:1055A00000F05CFB0346002B00F0B68000F0C0F872
:1055B0000346FB73FBF74DFCB860FB79002B0ED163
:1055C0004FF00D53D3F8FC36574ADBB213604FF05F
:1055D0000D53D3F8DC363B6100F038FA64E0FB7918
:1055E000022B21D1FFF7A0FF0346002B03D04E4B27
:1055F00050221A6007E04FF00D53D3F8FC361B0A17
:10560000494ADBB213604FF00D53D3F8E0363B61EB
:105610000320FFF793FDFB7B022B02D900F05AFA1F
:1056200042E000F0D7FA3FE0FB79012B21D1FFF7F0
:105630007BFF0346002B03D03B4B50221A6007E050
:105640004FF00D53D3F8FC361B0C374ADBB2136016
:105650004FF00D53D3F8E4363B610320FFF76EFDA6
:10566000FB7B002B02D100F013FA1DE000F090FA52
:105670001AE0FFF759FF0346002B03D02A4B5022B4
:105680001A6007E04FF00D53D3F8FC361B0E264A84
:10569000DBB213604FF00D53D3F8E8363B610320C3
:1056A000FFF74CFD00F0B8FA204B1B6823F01F02F7
:1056B0003B6903F01F031D4913430B60FB79002B6B
:1056C00002D100F04BFA22E0FB79022B0BD1032030
:1056D000FFF734FDFB7B012B02D900F07BFA16E0CB
:1056E00000F0F8F913E0FB79012B0BD10320FFF751
:1056F00025FDFB7B012B02D900F04AFA07E000F000
:10570000C7F904E00320FFF719FD00F005FAB868B7
:10571000FBF7A3FB00237B617B6918461837BD4666
:1057200080BD00BF03004200E8202042E02020426C
:1057300080B483B000AF134B1B6803F01F037B6082
:105740004FF00D53D3F8DC367A689A4213D04FF0FD
:105750000D53D3F8E0367A689A420AD04FF00D53D1
:10576000D3F8E8367A689A4201D1032304E0012392
:1057700002E0022300E0002318460C37BD4680BC3F
:10578000704700BFE020204280B487B000AF78604F
:105790000023FB757B68002B6BD07B68DB68002BDC
:1057A00067D07B681B68002B63D07B681B79BB606C
:1057B000334ABB6852F82330002B4DD0304ABB68C7
:1057C00052F823303B613B69FB600AE03B695B694F
:1057D0003B613B691A7E7B681B7E9A4201D83B691C
:1057E000FB603B695B69002B03D03A697B689A4296
:1057F000ECD13A697B689A423BD0FB681B69002B6D
:1058000015D17B681A7EFB681B7E9A420FD27B689B
:10581000FA685A617B6800221A617B685B697A6862
:105820001A611749BB687A6841F8232011E0FB68C8
:105830005A697B685A617B68FA681A617B685B69A0
:10584000002B03D07B685B697A681A61FB687A6811
:105850005A610123FB750CE00949BB687A6841F87D
:1058600023207B6800225A617B6800221A61012391
:10587000FB75FB7D18461C37BD4680BC704700BFDA
:10588000CC06003480B586B000AF03460A46FB71F3
:105890001346BB71FB79002B12D0FB79032B0FD081
:1058A000FB79042B0CD0FB79012B09D0FB79052B5C
:1058B00006D0FB79062B03D0FB79022B00D001BE6A
:1058C000BB79012B0CD0BB79022B09D0BB79042BFF
:1058D00006D0BB79082B03D0BB79102B00D001BEBA
:1058E00000237B61FB793E4A52F823303B61BB7950
:1058F000042B1FD0BB79012B3AD11BE0BA793B694D
:105900009B681340002B12D13B69DB681B68BB60AE
:105910003B69DB685B68FB603B691B68B97907F131
:1059200008021046984778612E4A3B6913603B692C
:105930005B693B613B69002B06D07B692A4A934235
:10594000DCD1BB79012BD9D1BB79012B42D17B6949
:10595000254A934206D1FB79224A1268234941F82D
:10596000232037E0FB79214A002142F8231031E05F
:10597000BB79022B08D002E03B695B693B613B6964
:105980005B69002BF8D122E0164B1B683B613B6939
:10599000002B1CD03B691B693B6118E0BA793B695D
:1059A0009B681340002B0FD13B69DB681B68BB6011
:1059B0003B69DB685B68FB603B691B68B97907F191
:1059C00008021046984778613B691B693B613B6957
:1059D000002BE3D17B6918461837BD4680BD00BF58
:1059E000CC06003414070034FF004200F0060034F7
:1059F00080B582B000AFFBF72CFA7860084B03F556
:105A000080535B68064A43F0804302F5805253603E
:105A10007868FBF722FA00BF0837BD4680BD00BF9B
:105A20000000205280B400AF074B03F580535B6841
:105A300003F08043002B14BF01230023DBB2184680
:105A4000BD4680BC704700BF0000205280B400AF4C
:105A50004FF00D53D3F8303723F440720B4B03F55E
:105A600080431B6803F440730849134301F58042E7
:105A700013604FF00D53054AD3F8203702F58042EA
:105A8000536000BFBD4680BC704700BF000020527D
:105A900080B400AF4FF00D53D3F8143723F44072A5
:105AA0000B4B03F580431B6803F440730849134311
:105AB00001F5804213604FF00D53054AD3F80437C7
:105AC00002F58042536000BFBD4680BC704700BFF6
:105AD0000000205280B400AF4FF00D53D3F81837B8
